S00B00005653452E737265632B
S11300000C942A000C9447000C9447000C9447006D
S11300100C9447000C9447000C9447000C94470040
S11300200C9447000C9447000C9447000C94470030
S11300300C9447000C9447000C9447000C94470020
S11300400C9447000C9447000C9447000C94470010
S11300500C94470011241FBECFE5D8E0DEBFCDBF0E
S113006010E0A0E6B0E0E4E0F6E002C005900D92F6
S1130070A63AB107D9F720E0A6EAB0E001C01D9284
S1130080A73AB207E1F70E94C4000C9400030C9451
S1130090000041111CC0813059F028F0823069F011
S11300A0833081F008958AB3609568236ABB08950C
S11300B087B36095682367BB089584B3609568230C
S11300C064BB089581B36095682361BB08954F3F75
S11300D0B9F4813051F028F0823059F0833069F05E
S11300E008958AB3682B6ABB089587B3682B67BBEE
S11300F0089584B3682B64BB089581B3682B61BBF6
S11301000895813071F028F0823099F08330C9F07D
S113011008958BB3962F909589234623482B4BBB88
S1130120089588B3962F909589234623482B48BB7E
S1130130089585B3962F909589234623482B45BB74
S1130140089582B3962F909589234623482B42BB6A
S11301500895813049F028F0823049F0833051F01D
S11301600CC089B368230AC086B3682307C083B36D
S1130170682304C080B3682301C06FEF81E061117C
S113018001C080E081950895CF93DF93CDB7DEB7AA
S11301902B970FB6F894DEBF0FBECDBF789480E0E6
S11301A00E94630181E00E94630180E895E2A0E07F
S11301B0B0E088879987AA87BB8786E08A8388E12D
S11301C089831B821E821D821C821F82CE0101969E
S11301D00E945F0200E020E240E062E080E50E94CD
S11301E009022FEF83ED90E3215080409040E1F726
S11301F000C0000080E690E00E94CF028EE690E00E
S11302000E94CF025F9BFECF8CB18093A6008FE843
S113021090E00E94CF028091A60080530E94CB02FE
S11302208091A6000E944E028091A6000E944E0278
S11302308091A6000E944E0210E380E00E94830198
S11302408230D1F48091A6008F5F8093A6008091C4
S1130250A6000E944E028091A6000E94CB0282EA70
S113026090E00E94CF022FEF89E698E12150804070
S11302709040E1F700C0000081E00E9483018230D9
S1130280E1F68091A60081508093A6008091A6009B
S1130290803318F41093A6000CC08091A6000E942D
S11302A04E028091A6000E94CB0282EA90E00E9456
S11302B0CF022FEF89E698E1215080409040E1F78A
S11302C000C00000BACF813061F028F0823079F0AC
S11302D0833099F0089540E060E182E00E94490093
S11302E0089540E064E081E00E944900089540E000
S11302F064E080E00E944900089540E068E080E006
S11303000E9449000895813099F028F08230E9F084
S1130310833041F134C06FE070E080E090E00E94EF
S1130320C90160E182E00E94A90081112AC00895F8
S11303306FE070E080E090E00E94C90164E081E039
S11303400E94A90081111FC008956FE070E080E051
S113035090E00E94C90164E080E00E94A90081113C
S113036014C008956FE070E080E090E00E94C9013D
S113037068E080E00E94A900811109C0089580E02E
S1130380089582E0089582E0089582E0089582E06D
S11303900895CF92DF92EF92FF92CF93DF9300D034
S11303A000D0CDB7DEB76B017C0119821A821B82A3
S11303B01C82672B682B692BC9F420C089819A8120
S11303C0AB81BC810196A11DB11D89839A83AB8346
S11303D0BC832150310991F74F5F5F4F6F4F7F4FBF
S11303E04C155D056E057F0531F408C040E050E012
S11303F0BA01F9E4E1E02F2F3E2FE0CF0F900F90E8
S11304000F900F90DF91CF91FF90EF90DF90CF90FE
S11304100895FF920F931F93CF93DF93C82FD62F86
S1130420F42E122F1DB88034B9F0803549F540E020
S113043060E481E00E9449004FEF60E281E00E94A5
S113044049004FEF60E881E00E9449004FEF60E10E
S113045081E00E94490014C04FEF60E481E00E94F3
S1130460490040E060E281E00E94490040E060E829
S113047081E00E94490040E060E181E00E9449007F
S11304800F29102BD12BCD2BCDB98FB780688FBFFF
S1130490DF91CF911F910F91FF900895CF93C82FB3
S11304A040E060E181E00E948100CFB9779BFECFFC
S11304B04FEF60E181E00E948100CF910895CF92D7
S11304C0DF92EF92FF92CF93DF93EC019AB1888190
S11304D0892B9E81892B8AB920B58B819D81892B9B
S11304E080689981892B9A81892B9C81892B822B05
S11304F080BD8F819885A985BA85880F991FAA1F09
S1130500BB1F880F991FAA1FBB1F9C01AD01220F9F
S1130510331F441F551F220F331F441F551F0F2E17
S1130520C12CF4E2DF2EF4EFEF2EF12CF02DC701F5
S1130530B6010E94DE02215029B98F819885A985D0
S1130540BA85880F991FAA1FBB1F880F991FAA1F5E
S1130550BB1F9C01AD01220F331F441F551F220FE7
S1130560331F441F551FC701B6010E94DE02DA0182
S1130570C9010197A109B109892F9A2FAB2FBB2774
S113058080BD8FB780688FBFDF91CF91FF90EF90D0
S1130590DF90CF9008955D9BFECF8CB90895CF93E3
S11305A0DF93EC018881882331F021960E94CB02ED
S11305B089918111FBCFDF91CF910895A1E21A2E89
S11305C0AA1BBB1BFD010DC0AA1FBB1FEE1FFF1FF3
S11305D0A217B307E407F50720F0A21BB30BE40B43
S11305E0F50B661F771F881F991F1A9469F760958A
S11305F07095809590959B01AC01BD01CF01089544
S1070600F894FFCF98
S11306042057656C636F6D652E2E2E200A002050D2
S11306146C6561736520456E746572207468652029
S1130624496E697469616C2053706565640A005984
S11306346F75206861766520656E746572656420E3
S10906440A000D0A00008B
S9030000FC
